:020000040000FA
:0600000013EF15F01200E1
:020006001200E6
:06000800DFEF12F0120010
:0600180050EF13F012008E
:02001E000100DF
:0C002000662A000060000000470000009D
:04002C00D9CFE6FF43
:10003000E1CFD9FFE652DF6A959083809598838857
:10004000958495869582959A838A958C0001310EC8
:10005000C96F020ECA6F7F0ECB6F020ECC6F8A8AF9
:100060008A948A92898A640EE66EE66AB8EC14F085
:10007000E552E5520001C56B010EE66EE66AEEEC54
:1000800011F0E552E552F28CF28E0001C55101E10A
:10009000FCD7000EE66EE66AEEEC11F0E552E55292
:1000A0000001BF6BBF5101E1FDD78A9A8A848A8221
:1000B000899AC06BC16BC26BC66BC46B3C0EE66E9B
:1000C000E66A2DEC0DF0E552E5523C0EE66EE66A6E
:1000D00062EC0DF0E552E552E552E552E7CFD9FF6B
:1000E0001200D9CFE6FFE1CFD9FF0001BF512EE0CA
:1000F000C051E96EEA6AD890E936EA36CD0EE926B3
:10010000000EEA22FD0EDBCFEEFFFE0EDBCFEDFF91
:10011000C02B030EC05D12E325D80001C06B000E9A
:10012000E66EE66A020EE66EE66A010EE66EF6EC32
:100130000DF0146E050EE15E145007D0000EE66E51
:10014000E66AEEEC11F0E552E55208D0FD0EDBCF89
:10015000C7F0FE0EDBCFC8F0010EBF6FE552E7CF50
:10016000D9FF1200D9CFE6FFE1CFD9FF020EE12679
:100170000001310ECD5D020ECE590AE3310ECF5D86
:10018000020ED05905E3310ED15D020ED2591EE2A6
:10019000CD51CF25166ECE51D021176E1650D125D8
:1001A000146E1750D221156E030E0D6E0E6A14C018
:1001B00008F015C009F0EDEC14F008C014F009C007
:1001C00015F014C0DEFF15C0DDFFF5D1CF51CD5DB8
:1001D000D051CE5901E2F8D0CF51CD5D146ECE5141
:1001E000D055156E040ED8801454000E155401E23B
:1001F00094D0D151CF5DD251D0593DE3D151CF5D93
:10020000146ED051D255156E040ED8801454000EC1
:1002100015541EE3CD51CF25166ECE51D021176E49
:100220001650D125146E1750D221156E030E0D6E87
:100230000E6A14C008F015C009F0EDEC14F008C007
:1002400014F009C015F014C0DEFF15C0DDFF12D098
:10025000CD51CF25146ECE51D021156E010E0F0B4E
:1002600005E0D89015321432E806FBE114C0DEFF39
:1002700015C0DDFF51D0D151CD5DD251CE591EE315
:10028000CD51CF25166ECE51D021176E1650D125E7
:10029000146E1750D221156E030E0D6E0E6A14C027
:1002A00008F015C009F0EDEC14F008C014F009C016
:1002B00015F014C0DEFF15C0DDFF2ED0CD51D15D8D
:1002C000146ED251CE55156E040ED8801454000E03
:1002D000155405E2D1C0DEFFD2C0DDFF1DD0CD51E7
:1002E000CF25166ECE51D021176E1650D125146E23
:1002F0001750D221156E030E0D6E0E6A14C008F051
:1003000015C009F0EDEC14F008C014F009C015F0A8
:1003100014C0DEFF15C0DDFF56D0D151CF5DD251E4
:10032000D05905E3CDC0DEFFCEC0DDFF4CD0D151AA
:10033000CD5DD251CE5924E3D151CD5D146ECE5155
:10034000D255156E040ED8801454000E155405E2D3
:10035000CDC0DEFFCEC0DDFF12D0CD51D125146E51
:10036000CE51D221156E010E0F0B05E0D89015323B
:100370001432E806FBE114C0DEFF15C0DDFF23D018
:10038000CD51D15D146ED251CE55156E040ED8806C
:100390001454000E155413E3CD51D125146ECE51D3
:1003A000D221156E010E0F0B05E0D89015321432D4
:1003B000E806FBE114C0DEFF15C0DDFF04D0D1C0AC
:1003C000DEFFD2C0DDFFF7D0CD51CF5D146ED0512E
:1003D000CE55156E040ED8801454000E155401E24B
:1003E00094D0D151CF5DD251D0592FE2CF51D15DB0
:1003F000146ED251D055156E040ED8801454000ED0
:1004000015541EE3CD51CF25166ECE51D021176E57
:100410001650D125146E1750D221156E030E0D6E95
:100420000E6A14C008F015C009F0EDEC14F008C015
:1004300014F009C015F014C0DEFF15C0DDFF04D0B4
:10044000D1C0DEFFD2C0DDFF5FD0CD51D15DCE5136
:10045000D2593DE2D151CD5D146ECE51D255156EBB
:10046000040ED8801454000E15541EE3CD51CF2530
:10047000166ECE51D021176E1650D125146E17501E
:10048000D221156E030E0D6E0E6A14C008F015C051
:1004900009F0EDEC14F008C014F009C015F014C018
:1004A000DEFF15C0DDFF12D0CD51CF25146ECE5129
:1004B000D021156E010E0F0B05E0D89015321432C5
:1004C000E806FBE114C0DEFF15C0DDFF1DD0CD51F5
:1004D000CF25166ECE51D021176E1650D125146E31
:1004E0001750D221156E030E0D6E0E6A14C008F05F
:1004F00015C009F0EDEC14F008C014F009C015F0B7
:1005000014C0DEFF15C0DDFF56D0D151CF5DD251F2
:10051000D05924E2CF51D15D146ED251D055156E11
:10052000040ED8801454000E155413E3CF51D12576
:10053000146ED051D221156E010E0F0B05E0D8902C
:1005400015321432E806FBE114C0DEFF15C0DDFFF2
:1005500004D0D1C0DEFFD2C0DDFF2DD0CD51D15DA2
:10056000CE51D25905E2CFC0DEFFD0C0DDFF23D08F
:10057000D151CF5D146ED051D255156E040ED88076
:100580001454000E155413E3CF51D125146ED051DD
:10059000D221156E010E0F0B05E0D89015321432E2
:1005A000E806FBE114C0DEFF15C0DDFF04D0CFC0BC
:1005B000DEFFD0C0DDFFDECFC7F0DDCFC8F0000129
:1005C000CB51C75DCC51C85915E3C6EC0DF0F3CF44
:1005D00014F0F4CF15F0145015100CE10001C651C1
:1005E00009E1100EE66E0E0EE66EAFEC0DF0E55270
:1005F000E55210D00001CB51C75DCC51C8590AE279
:10060000C6EC0DF0F3CF14F0F4CF15F01450151024
:1006100001E084D90001C751CB5DC851CC5909E232
:10062000010E146E8150010B145C03E1010EC26FC8
:1006300001D0C26BC60503E086D9020805E1010EB0
:10064000E66ED8EC08F0E552020EE15C02E2E16AE7
:10065000E552E16EE552E7CFD9FF12000001C95122
:10066000CA1102E1000E09D0C751C95DC851CA596B
:1006700002E3010E02D0000E00D012000001C251B0
:1006800000D01200D9CFE6FFE1CFD9FFFE0EDBCFBD
:10069000C2F0E552E7CFD9FF1200D9CFE6FFE1CF94
:1006A000D9FFE652040EDF6E0001310EC75D020E67
:1006B000C85902E2DF6A17D0440EC75D020EC8595E
:1006C00003E2010EDF6E0FD04D0EC75D020EC8595A
:1006D00003E2020EDF6E07D05D0EC75D020EC85941
:1006E00002E2030EDF6EDF5000D0E552E552E7CFA5
:1006F000D9FF120000016E0EC75D020EC85903E358
:10070000010E03D002D0000E00D01200D9CFE6FFB8
:10071000E1CFD9FFE652DF6A8350080B01E0010EFA
:10072000DF12DF9EDF468350020B01E0010EDF1275
:10073000DF9EDF468350040B01E0010EDF12DF5025
:1007400002E1010E02D0000E00D0E552E552E7CFE3
:10075000D9FF12000001BF5100D01200D9CFE6FF2F
:10076000E1CFD9FFFE0EDBCFBFF0E552E7CFD9FFD7
:100770001200D9CFE6FFE1CFD9FFFE0EDBCFC4F0E8
:10078000E552E7CFD9FF12000001C45100D012009A
:100790000001C951CA1102E1000E0FD00F0E156AF7
:1007A000C925146ECA5115221450C75D1550C85979
:1007B00002E3010E02D0000E00D01200D9CFE6FFF6
:1007C000E1CFD9FF020EE126FD0EDBCFDEFFDBCF4E
:1007D000DDFFDECFC9F0DDCFCAF0BA0E0001C927B8
:1007E000000ECA23DECFCBF0DDCFCCF0090ECB2735
:1007F000010ECC23C55102E1010EC56F0F01489FC8
:10080000020EE15C02E2E16AE552E16EE552E7CFF9
:10081000D9FF12000001C55100D01200D9CFE6FF68
:10082000E1CFD9FF020EE126DF6AD950010FE66E53
:10083000000EDA20E66E010EE66EE66AE66AE66A09
:10084000E66A700EE66EE66AE66A15EC10F0146E63
:100850000A0EE15E1450010EDB50C20803E1010EE6
:10086000DF6E0BD0010EDB50C30802E1DF6A05D05A
:10087000C30EE66E10D8E552DF6ADF50146E020E2A
:10088000E15C03E200D0E16AE552E16E1450E5520A
:10089000E7CFD9FF1200D9CFE6FFE1CFD9FFE6526B
:1008A000D9CFE6FFDACFE6FF010EE66EE66AE66A2A
:1008B000E66AE66A700EE66EE66AE66A15EC10F025
:1008C000146E0A0EE15E1450DF50F36EFE0EDB5024
:1008D000F35C1FE0E66A720EE66EE66AE66AE66AB6
:1008E000700EE66EE66AE66A9FEC0FF0146E080E74
:1008F000E15E1450FE0EDBCFE6FFE66AE66A700E9C
:10090000E66EE66AE66A62EC10F0146E060EE15ED0
:100910001450E552E552E7CFD9FF12000001C66B33
:10092000000EE66EE66AAFEC0DF0E552E5521200FD
:10093000D9CFE6FFE1CFD9FFFE0EDBCFC6F0E552FF
:10094000E7CFD9FF1200D9CFE6FFE1CFD9FFE652BA
:10095000DF6A8350040B01E0010EDF12DF9EDF46E9
:100960008350080B01E0010EDF12DF9EDF4683504B
:10097000020B01E0010EDF12DF5000D0E552E5521C
:06098000E7CFD9FF1200D1
:0A0986000001D36BD46BD56BD66B68
:10099000D76BD86BD96BDA6BDB6BE06BE16B8A9A48
:1009A000899A8A848A82929A939A9394939291DAFA
:1009B000FBD8FDD80EEC04F00001E26F2EEC03F042
:1009C000010803E00001E2050CE10001010ED46F13
:1009D0005A0EE66E9EEC0DF0E552010EE66E21D940
:1009E000E5521200D9CFE6FFE1CFD9FFD950FD0F74
:1009F000E96EFF0EDA20EA6EEE50ED1002E1030E12
:100A000030D0FD0EDBCFE9FFFE0EDBCFEAFFEE526A
:100A1000EECF14F0EFCF15F0030E141801E11550CE
:100A200015E0020E141801E115500EE0010E141825
:100A300001E1155007E0145001E1155001E00FD01D
:100A400014D80DD022D80BD08BD909D00001020EBA
:100A5000D36FD56B8A8A898A8A948A9200D0000ED5
:100A600000D0E552E7CFD9FF12000001D351020AAE
:100A700009E0030A05E0010A01E006D075DB04D0B5
:100A800063DB02D003D800D0120012000001D55160
:100A9000080A6AE00F0A5FE0010A54E0030A49E02D
:100AA000010A41E0070A3AE0010A34E0030A23E0C0
:100AB000010A03E0010ED56F67D0E66A1ED9E55240
:100AC000010EE66E1AD9E552020EE66E16D9E5520F
:100AD000899A8A9A8A848A82C80EE66EE66AB8EC97
:100AE00014F0E552E552898A8A8A8A948A92000132
:100AF000010ED56F49D0640EE66EE66AB8EC14F0CC
:100B0000E552E552899A8A9A8A848A820001020E05
:100B1000D56F3AD0898A030ED56F36D0899A8A8AE2
:100B2000040ED56F31D08A9A8A948A92050ED56FB9
:100B30002BD08A848A828A8A898A3CD80001060E50
:100B4000D56F22D0899A8A948A9253D860D80001AE
:100B5000070ED56F19D08A9A898A8A948A922AD8E0
:100B60000001080ED56F10D044D853D8898A8A8ADC
:100B70008A948A92640EE66EE66AB8EC14F0E55246
:100B8000E5520001D56B00D012000001D35100D016
:100B90001200D9CFE6FFE1CFD9FFFE0EDBCFD3F0B5
:100BA000E552E7CFD9FF1200809092901200809218
:100BB000929212000001A46BA56B6051E66EE66A8A
:100BC000C1D9E552E55200018251E66EE66ADAD9F2
:100BD000E552E552CF6ACE6A7B6A7A6ACD80798027
:100BE000030EE66ED0EC0DF0E5520001010EA66F8B
:100BF0001200E66AD0EC0DF0E552CF6ACE6A7B6A4D
:100C00007A6ACD9079900001A66B80921200000064
:100C10001200CF6ACE6A7B6A7A6ACD907990809012
:100C20001200D9CFE6FFE1CFD9FFFE0EDB50EA6A12
:100C3000D60FE96E000EEA22EF0424E1FE0EDB502F
:100C4000EA6AD60FE96E000EEA22EF6AFE0EDB04B6
:100C500002E18A8A0BD0FE0EDB5002E1899A06D0AF
:100C6000FE0EDB50020802E18A848A82010EE66EE3
:100C7000FE0EDBCFE6FFE66AEFEC0CF0E552E55244
:100C8000E5522DD0FE0EDB50EA6AD60FE96E000E5B
:100C9000EA22EF5024E1FE0EDB50EA6AD60FE96E3D
:100CA000000EEA22010EEF6EFE0EDB0402E18A9ACC
:100CB0000BD0FE0EDB5002E1898A06D0FE0EDB501F
:100CC000020802E18A948A92010EE66EFE0EDBCFE4
:100CD000E6FFE66AEFEC0CF0E552E552E552FE0E57
:100CE000DB0407E156DA010804E0010EE66E55DA8E
:100CF000E552E552E7CFD9FF1200D9CFE6FFE1CFA9
:100D0000D9FFFE0EDB5002E1899A0BD0FE0EDB0408
:100D100002E18A9A06D0FE0EDB50020802E18A84C4
:100D20008A82FE0EDB50EA6AD60FE96E000EEA22D6
:100D3000EF6AE66AFE0EDBCFE6FFE66AEFEC0CF048
:100D4000E552E552E552FE0EDB0406E122DA000927
:100D500003E0E66A22DAE552E552E7CFD9FF120056
:100D6000020E0001D35D02E0DA5101E055D03EEC05
:100D700003F0000917E0140EE66E44EC0DF0E552A6
:100D8000C8EC03F001080DE18150010B0AE00001FD
:100D9000D46BE20506E1E26BC30EE66E4BEC04F0A9
:100DA000E5523AD02EEC03F0000921E0EEDE010816
:100DB0000DE1ABEC0DF0000909E15A0EE66E9EEC78
:100DC0000DF0E552010EE66E2CDFE5520001E25116
:100DD00007E1010EE26FC20EE66E4BEC04F0E55245
:100DE0000001010ED46FD90501E1D96B15D0C8EC13
:100DF00003F001080DE18150010B0AE00001D46B02
:100E0000E20506E1E26BC30EE66E4BEC04F0E55240
:100E10000001D90501E1D96B12000001D45100D0C5
:100E20001200D9CFE6FFE1CFD9FFFE0EDBCFD4F021
:100E3000E552E7CFD9FF12000001D95100D01200CE
:100E4000D9CFE6FFE1CFD9FFE652DF6A020E0001FB
:100E5000D35D01E135D086EC03F0DF6EDF0418E1ED
:100E60000001010EDA6F050EE66EE66A62EC0DF027
:100E7000E552E5520001E15103E1010EE16F57D95E
:100E80008A848A82B6DEC5DEE66A83DEE55218D041
:100E90003C0EE66EE66A62EC0DF0E552E5520001AA
:100EA000E16BDA050DE1DA6B010EE66E26DFE55245
:100EB000E66A23DFE55201EC14F0010801E18A8AB9
:100EC000E552E552E7CFD9FF12000001DA5100D018
:100ED0001200CD90CF6ACE6A3F0ECD140009CD6EC0
:100EE000CD82CF0ECD143009CD6E0001A46BA56B61
:100EF0006051E66EE66A26D8E552E552F00EBA1465
:100F00000A09BA6E9E949D849F8479907B6A7A6A5E
:100F10003F0E79140009796ECF0E79143009796E7D
:100F20007982F00EB4140A09B46EA190A080A28058
:100F300000018251E66EE66A25D8E552E5520F01BE
:100F400052811200D9CFE6FFE1CFD9FFD950FD0F72
:100F5000E96EFF0EDA20EA6EEE50ED1001E10ED0E0
:100F6000FD0EDBCF14F0FE0EDBCF15F015C014F034
:100F7000156A1450BC6EFD0EDB50BB6EE552E7CF18
:100F8000D9FF1200D9CFE6FFE1CFD9FFD950FD0F2D
:100F9000E96EFF0EDA20EA6EEE50ED1001E10ED0A0
:100FA000FD0EDBCF14F0FE0EDBCF15F015C014F0F4
:100FB000156A1450B66EFD0EDB50B56EE552E7CFE4
:100FC000D9FF12000001A60506E179908082808099
:100FD000CF6ACE6ACD801200D8DD010844E1010E4F
:100FE0000001EA6AA425E96EA551EA22600EE9260D
:100FF000000EEA22EF502EE0010EEA6AA425E96E07
:10100000A551EA22820EE926000EEA22EF5022E0E4
:10101000A42B000EA523600EA425E96E000EA521C9
:10102000EA6EEF50E66EE66A8DDFE552E552820E1B
:101030000001A425E96E000EA521EA6EEF50E66ED0
:10104000E66AA0DFE552E552010EE66ED0EC0DF047
:10105000E55209D0CF6ACE6ACD907B6A7A6A7990E0
:1010600080828080A66B12000001A6052BE1A1A062
:1010700008D0A190799080828080CF6ACE6ACD809E
:1010800021D09EA41FD09E94CD90010EEA6AA42583
:10109000E96EA551EA22600EE926000EEA22EF5021
:1010A0000EE0010EEA6AA425E96EA551EA22820E3D
:1010B000E926000EEA22EF5002E0809280907B6ADF
:1010C0007A6A79801200D9CFE6FFE1CFD9FFFE0E10
:1010D000DBCFDCF0FD0EDBCFDDF0FC0EDBCFDEF096
:1010E000DBCFDFF0CF6ACE6AFD0EDB5002E0CD80B1
:1010F00001D0CD90E552E7CFD9FF12000001A6053F
:1011000006E1CD90809280907B6A7A6A79801200A5
:10111000D9CFE6FFE1CFD9FFFE0EDBCFE0F0E552FD
:10112000E7CFD9FF12000001E05100D01200899AE8
:101130000001D66B8A9AD76BE66A73DDE552010E21
:10114000E66E6FDDE552120001EC14F0010803E0D9
:101150000001DA0501E107D04CDD5BDD899A8A8464
:101160008A820001D36B120001EC14F0010803E045
:101170000001DA0501E10CD050DE010801E108D0E0
:10118000898A8A948A920001010ED36F13DD3FDDB4
:1011900012000001DB5100D01200D9CFE6FFE1CFF1
:1011A000D9FFFE0EDBCFDBF0E552E7CFD9FF12000F
:1011B000D9CFE6FFE1CFD9FFFE0EDBCFD9F0E55264
:0611C000E7CFD9FF120089
:0A11C600D9CFE6FFE1CFD9FF060EF6
:1011D000E126D950FE0FE96EFF0EDA20EA6EEF50DD
:1011E0007E0803E2F36AF46A0FD1D9CFE9FFDACFC0
:1011F000EAFF000EEE6E0A0EED6ED9CFE9FFDACFF0
:10120000EAFFEE50EFCFEAFFE96EEF50E66ED950FD
:10121000040FE96EDACFEAFFE552E750EF6ED950DE
:10122000040FE96EDACFEAFFEF507F0BFF0FE66E97
:10123000D950050FE96EDACFEAFFE552E750EF6EBD
:10124000D950040FE96EDACFEAFFEF5003E1F36AF9
:10125000F46ADAD0D950040FE96EDACFEAFFEF5022
:10126000800B01E0BFD0D950FE0FE96EFF0EDA20EF
:10127000EA6EEFCF14F0D950050FE96EDACFEAFF2E
:10128000EF50D88014541FE2D9CFE9FFDACFEAFF3C
:10129000EECFE6FFEFCFE6FF46D9E552E552000973
:1012A00011E1D950040FE96EDACFEAFFEF507F0B5E
:1012B000146E156AD9CFE9FFDACFEAFF1450EE2693
:1012C0001550ED228ED0D950FE0FE96EFF0EDA20B8
:1012D000EA6EEFCF14F0D950050FE96EDACFEAFFCE
:1012E000EF50145C1BE1D9CFE9FFDACFEAFFEE50F3
:1012F000EFCFEAFFE96EEF8ED9CFE9FFDACFEAFF51
:10130000EECF14F0EFCF15F0010E1426000E1522CB
:1013100014C0F3FF15C0F4FF77D063D0D950FE0F8F
:10132000E96EFF0EDA20EA6EEF50810FE66ED9CF3C
:10133000E9FFDACFEAFFEE50EFCFEAFFE96EE552C0
:10134000E750EF6ED9CFE9FFDACFEAFFEECF14F026
:10135000EFCF15F0010E1426000E1522D950020F02
:10136000E96EDACFEAFF14C0EEFF15C0EDFFD950E9
:10137000FE0FE96EFF0EDA20EA6EEF28146E156A92
:10138000D9CFE9FFDACFEAFF1450EE261550ED224F
:10139000D950050FE96EDACFEAFFEFCF14F0D9503C
:1013A000FE0FE96EFF0EDA20EA6EEF50145CE66E77
:1013B000D9CFE9FFDACFEAFFEE50EFCFEAFFE96ECF
:1013C000E552E750EF6ED950020FE96EDACFEAFF2F
:1013D000EECF14F0EFCF15F014C0F3FF15C0F4FFFB
:1013E00013D011D0D950040FE96EDACFEAFFEF50D5
:1013F0007F0B146E156AD9CFE9FFDACFEAFF1450DC
:10140000EE261550ED22F9D6060EE15C02E2E16A05
:10141000E552E16EE552E7CFD9FF1200D9CFE6FFE2
:10142000E1CFD9FFD950FD0FE96EFF0EDA20EA6E49
:10143000EE50EFCFEAFFE96EE906000EEA5AEF9EA2
:10144000E552E7CFD9FF1200D9CFE6FFE1CFD9FFB0
:10145000040EE126D9CFE9FFDACFEAFF000EEE6EE7
:101460000A0EED6ED950020FE96EDACFEAFFEE6890
:10147000010EED6ED950020FE96EDACFEAFF7F0E52
:10148000D880EE54000EED541BE2D9CFE9FFDACF3D
:10149000EAFFEE50EFCFEAFFE96E7F0EEF6ED9CF95
:1014A000E9FFDACFEAFFEE26000EED22D950020F57
:1014B000E96EDACFEAFF7F0EEE5E000EED5ADAD764
:1014C000D950020FE96EDACFEAFFEF50E66ED9CFBE
:1014D000E9FFDACFEAFFEE50EFCFEAFFE96EE5521F
:1014E000E750EF6ED9CFE9FFDACFEAFFEECF14F085
:1014F000EFCF15F0D950020FE96EDACFEAFF1450A2
:10150000EE24E76E1550EE20EA6EE7CFE9FFEF6AB2
:10151000040EE15C03E200D0E16AE552E16EE552BF
:10152000E7CFD9FF1200D9CFE6FFE1CFD9FF050EF3
:10153000E126D950FD0FE96EFF0EDA20EA6EEE507B
:10154000EFCFEAFFE96EEF50166E176AD950FD0F24
:10155000E96EFF0EDA20EA6E1650EE24146E175074
:10156000EE20156ED9CFE9FFDACFEAFF14C0EEFF07
:1015700015C0EDFFD950FD0FE96EFF0EDA20EA6EBF
:10158000EE50EFCFEAFFE96EEF50E66ED950020F52
:10159000E96EDACFEAFFE552E750EF6ED9CFE9FF07
:1015A000DACFEAFFEE50EFCFEAFFE96EEF50E66EDA
:1015B000D950030FE96EDACFEAFFE552E750EF6E3C
:1015C000D950030FE96EDACFEAFFEF5002E1000EC7
:1015D0009AD0D950020FE96EDACFEAFFEF50800BB4
:1015E00008E1D950030FE96EDACFEAFFEF50800B24
:1015F00002E0000E88D0D950020FE96EDACFEAFF80
:10160000EF507F0B7F0802E1000E7DD0D950030F11
:10161000E96EDACFEAFFEFCF14F0D950020FE96E8E
:10162000DACFEAFFEF501424E66ED950040FE96ECA
:10163000DACFEAFFE552E750EF6ED950040FE96EBA
:10164000DACFEAFFEF507F0849E2D950FD0FE96E8B
:10165000FF0EDA20EA6EEE50EFCFEAFFE96E7F0E62
:10166000EF6ED950FD0FE96EFF0EDA20EA6E7F0EA5
:10167000EE26000EED22D950030FE96EDACFEAFF15
:10168000EF50146E156AD9CFE9FFDACFEAFF145094
:10169000EE261550ED22D9CFE9FFDACFEAFFEECFE3
:1016A00016F0EFCF17F0D950FD0FE96EFF0EDA20DC
:1016B000EA6EEE50165C146EEE501758156ED95047
:1016C000FD0FE96EFF0EDA20EA6EEE50EFCFEAFF73
:1016D000E96E14C0EFFF7F0E16D015D0D950040F5D
:1016E000E96EDACFEAFFEF50E66ED950FD0FE96EF2
:1016F000FF0EDA20EA6EEE50EFCFEAFFE96EE55218
:10170000E750EF6E00D0146E050EE15C02E2E16A74
:0E171000E552E16E1450E552E7CFD9FF12000A
:02171E00F29E39
:10172000CD86550EA76EAA0EA76E0F013F8B3F9F69
:101730003FB9FED7918C918EA380A480A4903F8F57
:10174000550EA76EAA0EA76E3F9B0001A76BA96B53
:10175000A86BAA6BAD6BAE6BB16BB46BB56BB66BB4
:10176000B76BB86BB96BBA6BBB6BBC6BBD6BF28EF6
:101770001200A4A003D0A4900001A72B0001A75140
:1017800001E178D0A707BE2BBE51010B06E1BA2BB1
:10179000000EBB23BC23BD23BE6BA951000804E28D
:1017A000A907A95101E1B885A851000804E2A807DA
:1017B000A85101E1B883AA51000804E2AA07AA517E
:1017C00001E1B887000ED880AB55000EAC5507E29A
:1017D000AB07000EAC5BAB51AC1101E1B889AD5168
:1017E000000804E2AD07AD5101E1B88BAE5100082D
:1017F00004E2AE07AE5101E1B88D000ED880AF55BE
:10180000000EB05507E2AF07000EB05BAF51B0114C
:1018100001E1B88FB151000804E2B107B15101E113
:10182000B981B251000804E2B207B25101E1B983B3
:10183000B351000804E2B307B35101E1B985B451D3
:10184000000804E2B407B45101E1B987000ED88062
:10185000B555000EB65507E2B507000EB65BB5519B
:10186000B61101E1B989B751000804E2B707B751D1
:1018700001E1B98B1200D9CFE6FFE1CFD9FFE652E3
:101880000001B851B91101E1A2D00001B8A506D0FC
:101890000001B895E66A11EC06F0E5520001B8A324
:1018A00007D00001B893010EE66E11EC06F0E55288
:1018B0000001B8A707D00001B897020EE66E11EC40
:1018C00006F0E5520001B8A919D00001B899000E40
:1018D000E66EE66AEEEC11F0E552E552DF6EDF509F
:1018E00007E1050EE66EE66AB8D8E552E55206D085
:1018F0003C0EE66EE66AB1D8E552E5520001B8AB9F
:101900000BD00001B89B65EC07F0000905E1010E62
:10191000E66E7DEC06F0E5520001B8AD04D00001A2
:10192000B89DCDEC11F00001B8AF04D00001B89F14
:1019300020EC07F00001B9A102D00001B99100012B
:10194000B9A31BD00001B99393EC08F0000915E18D
:10195000010EE66E88EC08F0E55281B80ED0000E5C
:10196000E66EE66A030EE66EE66A010EE66EF6ECD9
:101970000DF0146E050EE15E14500001B9A716D0EB
:101980000001B99701EC14F0010803E00001DA0549
:1019900002E100000BD0010EE66E7DEC06F0E55290
:1019A000C5EC05F0010802E1A4EC08F00001B9A9BA
:1019B00007D00001B999010EE66E98EC04F0E552EB
:1019C0000001B9AB04D00001B99BECEC07F0E55283
:1019D000E552E7CFD9FF12000001A72B1200D9CFA3
:1019E000E6FFE1CFD9FFD950FD0FE96EFF0EDA20F7
:1019F000EA6EEE50ED1008E1FC0EDBCFA9F0DB50F3
:101A000002E10001B89525D0D950FD0FE96EFF0E17
:101A1000DA20EA6E010EEE1801E1ED5008E1FC0E4D
:101A2000DBCFA8F0DB5002E10001B89312D0D9500F
:101A3000FD0FE96EFF0EDA20EA6E020EEE1801E1EC
:101A4000ED5007E1FC0EDBCFAAF0DB5002E1000114
:101A5000B897E552E7CFD9FF1200D9CFE6FFE1CF23
:101A6000D9FF020E086E096AFD0EDBCF0DF0FE0EE7
:101A7000DBCF0EF0CFEC14F006C0ABF007C0ACF03B
:101A8000E552E7CFD9FF1200D9CFE6FFE1CFD9FF6A
:101A9000FE0EDB50E8240001AD6FE552E7CFD9FF21
:101AA00012000001AD5100D01200D9CFE6FFE1CF06
:101AB000D9FFFE0EDB50E8240001AE6FE552E7CF00
:101AC000D9FF1200D9CFE6FFE1CFD9FF020E086E91
:101AD000096AFD0EDBCF0DF0FE0EDBCF0EF0CFEC72
:101AE00014F006C0AFF007C0B0F0E552E7CFD9FF61
:101AF0001200D9CFE6FFE1CFD9FFFE0EDB50E8247C
:101B00000001B16FE552E7CFD9FF1200D9CFE6FF50
:101B1000E1CFD9FFFE0EDB50E8240001B26FE552A1
:101B2000E7CFD9FF12000001B951040B01E0010E0B
:101B300000D012000001280EB36F1200D9CFE6FFCB
:101B4000E1CFD9FFFE0EDB50E8240001B46FE5526F
:101B5000E7CFD9FF12000001B45100D01200D9CF55
:101B6000E6FFE1CFD9FF020E086E096AFD0EDBCF5A
:101B70000DF0FE0EDBCF0EF0CFEC14F006C0B5F08A
:101B800007C0B6F0E552E7CFD9FF1200B5C0F3FFAA
:101B9000B6C0F4FF00D012000001B75100D012000F
:101BA000D9CFE6FFE1CFD9FFFE0EDBCFB7F0E5528C
:061BB000E7CFD9FF12008F
:0A1BB600D9CFE6FFE1CFD9FFE652D8
:101BC000DF6A020EDF5C0DE2EA6ADF34FE0BEA3602
:101BD000E96E000EE9260E0EEA22EE6AED6ADF2AB1
:101BE000F0D7E552E552E7CFD9FF1200D9CFE6FF93
:101BF000E1CFD9FF040EE126DE6ADD6A070EE66E4C
:101C0000E3EC08F0E552F3CFDEFFF4CFDDFFD9CFF0
:101C1000E9FFDACFEAFFEE50ED1002E1000E82D0CC
:101C2000DECFE9FFDDCFEAFFFE0EDBCFEFFFDECF39
:101C3000E9FFDDCFEAFFEE52FC0EDBCFEEFFFD0E3B
:101C4000DBCFEDFFDECFE9FFDDCFEAFF030EE926B4
:101C5000000EEA22FA0EDBCFEEFFFB0EDBCFEDFF2C
:101C6000DECFE9FFDDCFEAFF050EEB6A060EEB6A79
:101C7000FE0EEA6ADB34FE0BEA36E96E000EE92658
:101C80000E0EEA22EE50ED100FE1FE0EEA6ADB3492
:101C9000FE0BEA36E96E000EE9260E0EEA22DECFD2
:101CA000EEFFDDCFEDFF3CD0FE0EEA6ADB34FE0B2B
:101CB000EA36E96E000EE9260E0EEA22020EEECF9B
:101CC000DBFF030EEDCFDBFF020EDBCFE9FF030EE0
:101CD000DBCFEAFF050EE926000EEA22EE50ED10FA
:101CE00011E0020EDBCFE9FF030EDBCFEAFF050EAA
:101CF000E926000EEA22020EEECFDBFF030EEDCF47
:101D0000DBFFE2D7020EDBCFE9FF030EDBCFEAFFFA
:101D1000050EE926000EEA22DECFEEFFDDCFEDFF55
:101D2000010E00D0146E040EE15C02E2E16AE5529D
:101D3000E16E1450E552E7CFD9FF1200D9CFE6FF8C
:101D4000E1CFD9FF020EE126FE0EEA6ADB34FE0B7C
:101D5000EA36E96E000EE9260E0EEA22EECFDEFF2D
:101D6000EDCFDDFFDECFE9FFDDCFEAFF050EE9268F
:101D7000000EEA22EECF14F0EFCF15F0FE0EEA6A65
:101D8000DB34FE0BEA36E96E000EE9260E0EEA227F
:101D900014C0EEFF15C0EDFFDECFE6FFDDCFE6FF9E
:101DA0000EEC0AF0E552E552020EE15C02E2E16A55
:101DB000E552E16EE552E7CFD9FF1200D9CFE6FF39
:101DC000E1CFD9FF020EE126FE0EEA6ADB34FE0BFC
:101DD000EA36E96E000EE9260E0EEA22EECFDEFFAD
:101DE000EDCFDDFFD9CFE9FFDACFEAFFEE50ED10FE
:101DF00034E0DECFE9FFDDCFEAFF050EE926000E75
:101E0000EA22EECF14F0EFCF15F0FE0EEA6ADB34D3
:101E1000FE0BEA36E96E000EE9260E0EEA2214C029
:101E2000EEFF15C0EDFFFE0EDB0400E1DECFE6FFA6
:101E3000DDCFE6FF0EEC0AF0E552E552FE0EEA6A4F
:101E4000DB34FE0BEA36E96E000EE9260E0EEA22BE
:101E5000EECFDEFFEDCFDDFFC5D7020EE15C02E283
:101E6000E16AE552E16EE552E7CFD9FF1200D9CF22
:101E7000E6FFE1CFD9FF020EE126DF6A020EDF5C4A
:101E800034E2EA6ADF34FE0BEA36E96E000EE92638
:101E90000E0EEA22EE50ED1026E0DF50010A01E0BE
:101EA00016D0EA6ADF34FE0BEA36E96E000EE92648
:101EB0000E0EEA22EECFE6FFEFCFE6FFF2EC04F0E3
:101EC000E552E552E76E010EE7CFDBFF00D0010ED1
:101ED000DB50020808E0010EDB50030804E0DFCF0E
:101EE000E6FF2CDFE552DF2AC9D7020EE15C02E2F1
:101EF000E16AE552E16EE552E7CFD9FF1200D9CF92
:101F0000E6FFE1CFD9FFE652DF6A020EDF5C10E2A6
:101F1000EA6ADF34FE0BEA36E96E000EE9260E0EA1
:101F2000EA22EE50ED1002E0000E04D0DF2AEDD7D9
:0E1F3000010E00D0E552E552E7CFD9FF1200B6
:021F3E00D9CFF9
:101F4000E6FFE1CFD9FF050EE126DF6AD950FB0F8E
:101F5000E96EFF0EDA20EA6E010EEECFDBFF020E15
:101F6000EECFDBFF030EEECFDBFF040EEECFDBFF89
:101F7000F70EDBCF14F0F80EDBCF15F0F90EDBCF48
:101F800016F0FA0EDBCF17F0D950010FE96EDACF59
:101F9000EAFF1450EE5C1550EE581650EE581750EC
:101FA000EE5839E2030EDB50F86E020EDB50F76E8E
:101FB000010EDB50F66EA684A688F2AE03D0F29E28
:101FC000010EDF6E550EA76EAA0EA76EA682DF5019
:101FD00001E0F28EA6B2FED7146A020E156E166AE2
:101FE000176AD950010FE96EDACFEAFFEE501426D6
:101FF000EE501522EE501622EE501722010E14C09C
:10200000DBFF020E15C0DBFF030E16C0DBFF040E64
:1020100017C0DBFFADD7050EE15C02E2E16AE552D5
:10202000E16EE552E7CFD9FF1200D9CFE6FFE1CF4D
:10203000D9FF040EE126D9CFE9FFDACFEAFFFB0E84
:10204000DBCFEEFFFC0EDBCFEEFFFD0EDBCFEEFFB6
:10205000FE0EDBCFEEFF020EDB50F86E010EDB5002
:10206000F76EDF50F66ED950F70FE96EFF0EDA20EB
:10207000EA6EEFCF14F0EE06000EEFCF15F0EE5A39
:10208000EFCF16F0EE5AEFCF17F0EF5A14501510AD
:10209000161017100DE00900F50EDBCFE9FFDB2A63
:1020A000F60EDBCFEAFF01E3DB2AF5CFEFFFDBD74C
:1020B000040EE15C02E2E16AE552E16EE552E7CF2F
:1020C000D9FF1200D9CFE6FFE1CFD9FF070EE126F5
:1020D000DF6AD950FB0FE96EFF0EDA20EA6E010EBF
:1020E000EECFDBFF020EEECFDBFF030EEECFDBFF0A
:1020F000040EEECFDBFFF90EDBCF08F0FA0EDBCFDC
:1021000009F0050E08C0DBFF060E09C0DBFF030E59
:10211000DB50F86E020EDB50F76E010EDB50F66EF0
:10212000050EDB50F56E0D00060EDB50F56E0C0053
:10213000030EDB50F86E020EDB50F76E010EDB5023
:10214000F66EA68AA684F2AE03D0F29E010EDF6E72
:10215000550EA76EAA0EA76EA682DF5001E0F28E82
:10216000A6B2FED7070EE15C02E2E16AE552E16E3B
:08217000E552E7CFD9FF120090
:082178000001FA6BFB6BFC6B2C
:10218000FE6B9388030EE66E86EC0DF0E552D59E4D
:10219000F29AF294F184D59CD59AD596F80ED5147E
:1021A0000709D56EF28AF19AF08CF090F086F28CE5
:1021B000F28E1200D9CFE6FFE1CFD9FFE65200013F
:1021C000FE052AE1FBC0E6FFBFD8E552F350DF6E03
:1021D0000001FE6BDF0420E1FA050EE1000EE66E61
:1021E000E66AE66EE66A010EE66EF6EC0DF0146E37
:1021F000050EE15E145010D0020EFA5D0DE1000EE6
:10220000E66EE66A010EE66EE66AE66EF6EC0DF044
:10221000146E050EE15E1450E552E552E7CFD9FF8A
:102220001200D9CFE6FFE1CFD9FFE6527BD8DF6EAF
:10223000D59EDF500001FB5D0EE1010EFA6FF18AC1
:10224000DFCFFBF0FD6B030EE66E55EC0DF0E552B3
:102250000001010EFE6FE552E552E7CFD9FF1200F3
:10226000D9CFE6FFE1CFD9FF020EE1265BD8DF6EC2
:10227000010EDB6A0001FA5112E1DF0405E0DF50D4
:10228000FB5D02E0D66AD76ADF0402E1D59E06D084
:10229000DFCFFBF0D768160ED66ED58E2ED0FA059E
:1022A00003E0020EFA5D29E1DF040CE1FA6BFBC0EA
:1022B000FCF0FD6BE66A55EC0DF0E552DE52010EC6
:1022C000DD6E1AD0DF50FB5D0CE0030EE66E55ECC0
:1022D0000DF0E552FBC0FCF0DFCFFBF00001FD6B21
:1022E0000BD0FA6BFBC0FCF0FD6BE66A55EC0DF011
:1022F000E552DE52010EDD6EF19A010EDB0403E1C0
:102300000001010EFE6F010EE66E88EC08F0E5524A
:10231000020EE15C02E2E16AE552E16EE552E7CFCE
:10232000D9FF1200D9CFE6FFE1CFD9FFE652DF6A2D
:102330008150100B01E0010EDF12DF5000D0E5529A
:10234000E552E7CFD9FF1200D9CFE6FFE1CFD9FFA1
:10235000E652010EDF6E020EDF5C13E2FE0EDBB012
:1023600008D0DF50146E156A14C0F3FF15C0F4FFD7
:102370000BD0DBCFF3FFF390F342F3CFDBFFDF2A89
:10238000EAD7F36AF46A00D0E552E552E7CFD9FF05
:1023900012000001FA5100D012000001020EFA6F83
:0623A000010EFE6F1200A9
:0A23A6000001E36B93860FD89F8CB3
:1023B000C30EC2142409C26EC18EF80EC1140409E2
:1023C000C16EC70EC1142009C16E1200C292C29024
:1023D0000001E46BE56B9E9C9D9C1200D9CFE6FF4B
:1023E000E1CFD9FF0001E40502E1000E3CD0EEDFB1
:1023F000D950FD0FE96EFF0EDA20EA6EEE50ED10B7
:1024000005E1C30EC2142409C26E18D0D950FD0FC5
:10241000E96EFF0EDA20EA6E010EEE1801E1ED50D2
:102420000DE10F01488F140EE66EE66AB8EC14F069
:10243000E552E552C30EC2143C09C26EFD0EDBCF5D
:10244000E6F0FE0EDBCFE7F00001E56BE86BE96B31
:10245000EA6BEB6BEC6BED6B010EE46F9E9C9D8C5D
:10246000C280C28200D0E552E7CFD9FF1200020E2F
:102470000001E55D26E2E651E71105E0010EE619EF
:1024800001E1E7511AE1C450166E16C017F0166A42
:10249000C35000011610146E17C015F00001E5516D
:1024A000E96EEA6AD890E936EA36E80EE926000EC7
:1024B000EA2214C0EEFF15C0EDFFE52B9E9CC28200
:1024C00032D0E651E71105E0010EE61901E1E751CE
:1024D0001AE1C450166E16C017F0166AC3500001F8
:1024E0001610146E17C015F00001E551E96EEA6A86
:1024F000D890E936EA36E80EE926000EEA2214C042
:10250000EEFF15C0EDFF010EE36FE6C0EEF0E7C091
:10251000EFF0AAEC03F0000904E00AEC04F0000973
:1025200001E102D853DF1200D9CFE6FFE1CFD9FF96
:10253000020EE1260001E30538E1E36BE851EA25EC
:10254000166EE951EB21176E1650EC25146E1750DC
:10255000ED21156E030E0D6E0E6A14C008F015C045
:1025600009F0EDEC14F008C014F009C015F014C027
:10257000DEFF15C0DDFF0001EE51EF1109E1DECFF6
:10258000E6FFDDCFE6FF71EC00F0E552E5520DD03D
:10259000010EEE1901E1EF5108E1DECFE6FFDDCFDC
:1025A000E6FFDEEC03F0E552E552020EE15C02E2EA
:0E25B000E16AE552E16EE552E7CFD9FF120075
:0225BE00DACF72
:1025C000E4FFE2CFDAFFE9CFE4FFEACFE4FFF6CFA2
:1025D000E4FFF7CFE4FFF5CFE4FFF3CFE4FFF4CF60
:1025E000E4FFFACFE4FF00EE00F0140EE80403E38A
:1025F000EECFE4FFFBD700EE14F0040EE80403E393
:10260000EECFE4FFFBD7E652F2A403D0F29411EC34
:1026100011F0F0A003D0F09030EC11F09EAC02D09D
:1026200037EC12F0A4A008D0A490ECEC0CF093ECE2
:102630000DF0010801E1FFD7F2A202D005EC14F081
:102640009EB29E929EA403D09E947EEC08F0A1A020
:1026500003D0A190E2EC07F0E55200EE17F0040E73
:10266000E80403E3E5CFEDFFFBD700EE13F0140E13
:10267000E80403E3E5CFEDFFFBD7E5CFFAFFE5CFB5
:10268000F4FFE5CFF3FFE5CFF5FFE5CFF7FFE5CFAB
:10269000F6FFE5CFEAFFE5CFE9FFE5CFDAFF11006E
:1026A000D8CFE4FFE0CFE4FFE46EDACFE4FFE2CF7F
:1026B000DAFFE652E552E5CFDAFFE550E5CFE0FF7D
:0626C000E5CFD8FF100079
:0A26C60014D837EC0FF04AD8B9EC35
:1026D0000BF03BEC0CF0DAEC10F094EC12F0F2ECB6
:1026E00013F0040034EC08F09AEC0DF0EDD7120072
:1026F00029D810D824EC0AF0DBEC0DF0D3EC11F063
:1027000016EC00F08FEC0BF0BCEC10F0C3EC04F016
:10271000DCEF13F0D0B2D06A0F01FD0E496F4869AB
:1027200096948494969284929294809492968096B1
:10273000959E839E949E829E949C829C9494829467
:10274000C0801200F29E550EA76EAA0EA76E0E0153
:10275000FF91070EE76F550EA76EAA0EA76EFF81B9
:10276000120001EC14F0010801E101D001D81200BF
:102770007FEC0FF0000901E11ED0C5EC05F0000967
:1027800005E0C5EC05F0020801E015D0CA50040BC5
:1027900006E17650040B03E1CD50010B01E00BD0B4
:1027A000CDB009D0D550800B04E1C9EC11F000097F
:0827B00001E001D0030012005A
:0827B8009380F292F288815037
:1027C000010B0E01046F04050BE1E66A9EEC0DF0AF
:1027D000E552010EE66E7DEC06F0E5528A8AF19C28
:1027E000D08E120005D80E01045101E100D0120074
:1027F0008150010B0E01045D00E08150010B046F5C
:1028000012000E01045100D01200F292010E146E5B
:10281000F150400B01E0010E145CE8B0F18CE8A02F
:10282000F19CC5EC05F0020803E00001DA0501E1C6
:102830003AD081A02DD051EC0DF0000904E13EEC1E
:1028400003F0000908E0E66A44EC0DF0E552E66AA0
:1028500042EC03F0E552ABEC0DF0000909E0E66A4A
:102860009EEC0DF0E552010EE66E7DEC06F0E552B1
:10287000F9EC05F009EC06F08A8A8A848A82E66A15
:102880007DEC06F0E552E66AC9EC05F0E5520BD0A6
:10289000010EE66E7DEC06F0E5528EEC04F0E66A81
:0828A000D8EC08F0E55212002B
:0828A8001E0EF66E000EF76E25
:1028B000000EF86E00010900F550F56F0900F550A3
:1028C000F66F03E1F56701D03DD00900F550F06FD8
:1028D0000900F550F16F0900F550F26F0900090089
:1028E000F550E96E0900F550EA6E0900090009008B
:1028F000F550F36F0900F550F46F09000900F6CFA9
:10290000F7F0F7CFF8F0F8CFF9F0F0C0F6FFF1C02C
:10291000F7FFF2C0F8FF0001F35302E1F45307E0C0
:102920000900F550EE6EF307F8E2F407F9D7F7C0A7
:10293000F6FFF8C0F7FFF9C0F8FF0001F507000E39
:06294000F65BBFD7120098
:0A294600D9CFE6FFE1CFD9FFFD0E67
:10295000DBCF14F0FE0EDBCF15F0166A176A1450A9
:10296000E66E21EC15F0E552E552E7CFD9FF1200F3
:10297000D9CFE6FFE1CFD9FFE652FD0EDB50DF6E87
:10298000DF50DF06000906E0020EE66E03EC15F0EC
:0E299000E552F6D7E552E552E7CFD9FF120027
:02299E0008C06F
:1029A00012F008500D02F4CF07F0F3CF06F00950F3
:1029B0000E02F4CF09F0F3CF08F00D02F350072612
:1029C000F4500822E86A092212500E02F35007263A
:0A29D000F4500822E86A0922000C06
:0629DA00056A046A100EFC
:1029E000E76ED89008360936043605360D50045C7B
:1029F0000E50055805E30D50045E0E50055A082A86
:062A0000E72EF0D71200E2
:0A2A0600FF0EE350186E480E01D0D9
:102A10004C0EE76EE72EFED7E76AE72EFED7182E9C
:062A2000F7D700001200D0
:0A2A26001DEE00F02DEE00F0F86A3E
:102A3000019C54EC14F003EC00F063EC13F0FBD7B2
:022A4000120082
:0E2A4200FF0EE350E84E1200000000D000D05E
:082A500000D0E82EFAD71200B5
:082A580000EE00F00F0EEE6A23
:062A6000EA62FDD712003E
:0A2A66000406080A0C0E10121416E4
:102A7000181A1C1E20222426282A2C2E30323436E6
:102A8000383A3C3E404244004442403E3C3A3836AC
:102A90003432302E2C2A28262422201E1C1A1816E6
:0D2AA0001412100E0C0A08060400000000BD
:017FF800AADE
:017FF9000681
:017FFA001571
:017FFB00FD88
:017FFC00FB89
:017FFD00F88B
:00000001FF
